{
  "contractName": "Kittycontract",
  "abi": [
    {
      "anonymous": false,
      "inputs": [
        {
          "indexed": true,
          "internalType": "address",
          "name": "owner",
          "type": "address"
        },
        {
          "indexed": true,
          "internalType": "address",
          "name": "approved",
          "type": "address"
        },
        {
          "indexed": true,
          "internalType": "uint256",
          "name": "tokenId",
          "type": "uint256"
        }
      ],
      "name": "Approval",
      "type": "event"
    },
    {
      "anonymous": false,
      "inputs": [
        {
          "indexed": true,
          "internalType": "address",
          "name": "owner",
          "type": "address"
        },
        {
          "indexed": true,
          "internalType": "address",
          "name": "operator",
          "type": "address"
        },
        {
          "indexed": false,
          "internalType": "bool",
          "name": "approved",
          "type": "bool"
        }
      ],
      "name": "ApprovalForAll",
      "type": "event"
    },
    {
      "anonymous": false,
      "inputs": [
        {
          "indexed": true,
          "internalType": "address",
          "name": "owner",
          "type": "address"
        },
        {
          "indexed": true,
          "internalType": "uint256",
          "name": "tokenId",
          "type": "uint256"
        },
        {
          "indexed": false,
          "internalType": "uint256",
          "name": "mumId",
          "type": "uint256"
        },
        {
          "indexed": false,
          "internalType": "uint256",
          "name": "dadId",
          "type": "uint256"
        },
        {
          "indexed": false,
          "internalType": "uint256",
          "name": "genes",
          "type": "uint256"
        }
      ],
      "name": "Birth",
      "type": "event"
    },
    {
      "anonymous": false,
      "inputs": [
        {
          "indexed": true,
          "internalType": "address",
          "name": "from",
          "type": "address"
        },
        {
          "indexed": true,
          "internalType": "address",
          "name": "to",
          "type": "address"
        },
        {
          "indexed": true,
          "internalType": "uint256",
          "name": "tokenId",
          "type": "uint256"
        }
      ],
      "name": "Transfer",
      "type": "event"
    },
    {
      "inputs": [],
      "name": "CREATION_LIMIT_GEN0",
      "outputs": [
        {
          "internalType": "uint256",
          "name": "",
          "type": "uint256"
        }
      ],
      "stateMutability": "view",
      "type": "function"
    },
    {
      "inputs": [],
      "name": "gen0Counter",
      "outputs": [
        {
          "internalType": "uint256",
          "name": "",
          "type": "uint256"
        }
      ],
      "stateMutability": "view",
      "type": "function"
    },
    {
      "inputs": [],
      "name": "name",
      "outputs": [
        {
          "internalType": "string",
          "name": "",
          "type": "string"
        }
      ],
      "stateMutability": "view",
      "type": "function"
    },
    {
      "inputs": [],
      "name": "owner",
      "outputs": [
        {
          "internalType": "address",
          "name": "",
          "type": "address"
        }
      ],
      "stateMutability": "view",
      "type": "function"
    },
    {
      "inputs": [],
      "name": "symbol",
      "outputs": [
        {
          "internalType": "string",
          "name": "",
          "type": "string"
        }
      ],
      "stateMutability": "view",
      "type": "function"
    },
    {
      "inputs": [
        {
          "internalType": "uint256",
          "name": "_genes",
          "type": "uint256"
        }
      ],
      "name": "createKittyGen0",
      "outputs": [
        {
          "internalType": "uint256",
          "name": "",
          "type": "uint256"
        }
      ],
      "stateMutability": "nonpayable",
      "type": "function"
    },
    {
      "inputs": [
        {
          "internalType": "uint256",
          "name": "tokenId",
          "type": "uint256"
        }
      ],
      "name": "getKitty",
      "outputs": [
        {
          "components": [
            {
              "internalType": "uint256",
              "name": "genes",
              "type": "uint256"
            },
            {
              "internalType": "uint64",
              "name": "birthTime",
              "type": "uint64"
            },
            {
              "internalType": "uint32",
              "name": "mumId",
              "type": "uint32"
            },
            {
              "internalType": "uint32",
              "name": "dadId",
              "type": "uint32"
            },
            {
              "internalType": "uint16",
              "name": "generation",
              "type": "uint16"
            }
          ],
          "internalType": "struct Kittycontract.Kitty",
          "name": "",
          "type": "tuple"
        }
      ],
      "stateMutability": "view",
      "type": "function"
    },
    {
      "inputs": [
        {
          "internalType": "uint256",
          "name": "tokenId",
          "type": "uint256"
        }
      ],
      "name": "ownerOf",
      "outputs": [
        {
          "internalType": "address",
          "name": "owner",
          "type": "address"
        }
      ],
      "stateMutability": "view",
      "type": "function"
    },
    {
      "inputs": [
        {
          "internalType": "address",
          "name": "owner",
          "type": "address"
        }
      ],
      "name": "balanceOf",
      "outputs": [
        {
          "internalType": "uint256",
          "name": "",
          "type": "uint256"
        }
      ],
      "stateMutability": "view",
      "type": "function"
    },
    {
      "inputs": [],
      "name": "totalSupply",
      "outputs": [
        {
          "internalType": "uint256",
          "name": "total",
          "type": "uint256"
        }
      ],
      "stateMutability": "view",
      "type": "function"
    },
    {
      "inputs": [
        {
          "internalType": "address",
          "name": "to",
          "type": "address"
        },
        {
          "internalType": "uint256",
          "name": "tokenId",
          "type": "uint256"
        }
      ],
      "name": "transfer",
      "outputs": [],
      "stateMutability": "nonpayable",
      "type": "function"
    },
    {
      "inputs": [
        {
          "internalType": "address",
          "name": "to",
          "type": "address"
        },
        {
          "internalType": "uint256",
          "name": "tokenId",
          "type": "uint256"
        }
      ],
      "name": "approve",
      "outputs": [],
      "stateMutability": "nonpayable",
      "type": "function"
    },
    {
      "inputs": [
        {
          "internalType": "address",
          "name": "_operator",
          "type": "address"
        },
        {
          "internalType": "bool",
          "name": "_approved",
          "type": "bool"
        }
      ],
      "name": "setApprovalForAll",
      "outputs": [],
      "stateMutability": "nonpayable",
      "type": "function"
    },
    {
      "inputs": [
        {
          "internalType": "uint256",
          "name": "tokenId",
          "type": "uint256"
        }
      ],
      "name": "getApproved",
      "outputs": [
        {
          "internalType": "address",
          "name": "",
          "type": "address"
        }
      ],
      "stateMutability": "view",
      "type": "function"
    },
    {
      "inputs": [
        {
          "internalType": "address",
          "name": "owner",
          "type": "address"
        },
        {
          "internalType": "address",
          "name": "operator",
          "type": "address"
        }
      ],
      "name": "isApprovedForAll",
      "outputs": [
        {
          "internalType": "bool",
          "name": "",
          "type": "bool"
        }
      ],
      "stateMutability": "view",
      "type": "function"
    },
    {
      "inputs": [
        {
          "internalType": "address",
          "name": "_from",
          "type": "address"
        },
        {
          "internalType": "address",
          "name": "_to",
          "type": "address"
        },
        {
          "internalType": "uint256",
          "name": "_tokenId",
          "type": "uint256"
        }
      ],
      "name": "safeTransferFrom",
      "outputs": [],
      "stateMutability": "nonpayable",
      "type": "function"
    },
    {
      "inputs": [
        {
          "internalType": "address",
          "name": "from",
          "type": "address"
        },
        {
          "internalType": "address",
          "name": "to",
          "type": "address"
        },
        {
          "internalType": "uint256",
          "name": "tokenId",
          "type": "uint256"
        },
        {
          "internalType": "bytes",
          "name": "data",
          "type": "bytes"
        }
      ],
      "name": "safeTransferFrom",
      "outputs": [],
      "stateMutability": "nonpayable",
      "type": "function"
    },
    {
      "inputs": [
        {
          "internalType": "address",
          "name": "from",
          "type": "address"
        },
        {
          "internalType": "address",
          "name": "to",
          "type": "address"
        },
        {
          "internalType": "uint256",
          "name": "tokenId",
          "type": "uint256"
        }
      ],
      "name": "transferFrom",
      "outputs": [],
      "stateMutability": "nonpayable",
      "type": "function"
    }
  ],
  "bytecode": "0x6080604052600a6005556040518060400160405280600581526020017f4b697474790000000000000000000000000000000000000000000000000000008152506006908051906020019062000056929190620000f9565b506040518060400160405280600281526020017f465400000000000000000000000000000000000000000000000000000000000081525060079080519060200190620000a4929190620000f9565b50348015620000b257600080fd5b50336000806101000a81548173ffffffffffffffffffffffffffffffffffffffff021916908373ffffffffffffffffffffffffffffffffffffffff1602179055506200020e565b8280546200010790620001a9565b90600052602060002090601f0160209004810192826200012b576000855562000177565b82601f106200014657805160ff191683800117855562000177565b8280016001018555821562000177579182015b828111156200017657825182559160200191906001019062000159565b5b5090506200018691906200018a565b5090565b5b80821115620001a55760008160009055506001016200018b565b5090565b60006002820490506001821680620001c257607f821691505b60208210811415620001d957620001d8620001df565b5b50919050565b7f4e487b7100000000000000000000000000000000000000000000000000000000600052602260045260246000fd5b611ba9806200021e6000396000f3fe608060405234801561001057600080fd5b50600436106101165760003560e01c806395d89b41116100a2578063b88d4fde11610071578063b88d4fde146102cd578063d5a776ca146102e9578063e985e9c514610319578063e98b7f4d14610349578063ef5e94aa1461037957610116565b806395d89b4114610259578063a22cb46514610277578063a9059cbb14610293578063b4834330146102af57610116565b806323b872dd116100e957806323b872dd146101a357806342842e0e146101bf5780636352211e146101db57806370a082311461020b5780638da5cb5b1461023b57610116565b806306fdde031461011b578063081812fc14610139578063095ea7b31461016957806318160ddd14610185575b600080fd5b610123610397565b60405161013091906117bb565b60405180910390f35b610153600480360381019061014e91906115aa565b610425565b6040516101609190611739565b60405180910390f35b610183600480360381019061017e9190611545565b610473565b005b61018d6104ef565b60405161019a9190611818565b60405180910390f35b6101bd60048036038101906101b8919061143a565b6104fc565b005b6101d960048036038101906101d4919061143a565b61050c565b005b6101f560048036038101906101f091906115aa565b610540565b6040516102029190611739565b60405180910390f35b610225600480360381019061022091906113d5565b61057d565b6040516102329190611818565b60405180910390f35b6102436105c6565b6040516102509190611739565b60405180910390f35b6102616105ea565b60405161026e91906117bb565b60405180910390f35b610291600480360381019061028c9190611509565b610678565b005b6102ad60048036038101906102a89190611545565b6107ae565b005b6102b761082a565b6040516102c49190611818565b60405180910390f35b6102e760048036038101906102e29190611489565b61082f565b005b61030360048036038101906102fe91906115aa565b61089a565b6040516103109190611818565b60405180910390f35b610333600480360381019061032e91906113fe565b61099d565b60405161034091906117a0565b60405180910390f35b610363600480360381019061035e91906115aa565b610a31565b60405161037091906117fd565b60405180910390f35b610381610b3b565b60405161038e9190611818565b60405180910390f35b600680546103a4906119d9565b80601f01602080910402602001604051908101604052809291908181526020018280546103d0906119d9565b801561041d5780601f106103f25761010080835404028352916020019161041d565b820191906000526020600020905b81548152906001019060200180831161040057829003601f168201915b505050505081565b6000600880549050821061043857600080fd5b6003600083815260200190815260200160002060009054906101000a900473ffffffffffffffffffffffffffffffffffffffff169050919050565b61047d3382610b41565b61048657600080fd5b6104908282610bad565b808273ffffffffffffffffffffffffffffffffffffffff163373ffffffffffffffffffffffffffffffffffffffff167f8c5be1e5ebec7d5bd14f71427d1e84f3dd0314c0f7b2291e5b200ac8c7c3b92560405160405180910390a45050565b6000600880549050905090565b610507838383610c03565b505050565b610517838383610c03565b61053283838360405180602001604052806000815250610c98565b61053b57600080fd5b505050565b60006001600083815260200190815260200160002060009054906101000a900473ffffffffffffffffffffffffffffffffffffffff169050919050565b6000600260008373ffffffffffffffffffffffffffffffffffffffff1673ffffffffffffffffffffffffffffffffffffffff168152602001908152602001600020549050919050565b60008054906101000a900473ffffffffffffffffffffffffffffffffffffffff1681565b600780546105f7906119d9565b80601f0160208091040260200160405190810160405280929190818152602001828054610623906119d9565b80156106705780601f1061064557610100808354040283529160200191610670565b820191906000526020600020905b81548152906001019060200180831161065357829003601f168201915b505050505081565b3373ffffffffffffffffffffffffffffffffffffffff168273ffffffffffffffffffffffffffffffffffffffff1614156106b157600080fd5b80600460003373ffffffffffffffffffffffffffffffffffffffff1673ffffffffffffffffffffffffffffffffffffffff16815260200190815260200160002060008473ffffffffffffffffffffffffffffffffffffffff1673ffffffffffffffffffffffffffffffffffffffff16815260200190815260200160002060006101000a81548160ff0219169083151502179055508173ffffffffffffffffffffffffffffffffffffffff163373ffffffffffffffffffffffffffffffffffffffff167f17307eab39ab6107e8899845ad3d59bd9653f200f220920489ca2b5937696c31836040516107a291906117a0565b60405180910390a35050565b6107b83382610b41565b6107c157600080fd5b6107cb8282610bad565b808273ffffffffffffffffffffffffffffffffffffffff163373ffffffffffffffffffffffffffffffffffffffff167fddf252ad1be2c89b69c2b068fc378daa952ba7f163c4a11628f55a4df523b3ef60405160405180910390a45050565b606481565b61083a858585610c03565b61088a85858585858080601f016020809104026020016040519081016040528093929190818152602001838380828437600081840152601f19601f82011690508083019250505050505050610c98565b61089357600080fd5b5050505050565b60008060009054906101000a900473ffffffffffffffffffffffffffffffffffffffff1673ffffffffffffffffffffffffffffffffffffffff163373ffffffffffffffffffffffffffffffffffffffff16146108f557600080fd5b6064600a60009054906101000a900461ffff1661ffff161061094c576040517f08c379a0000000000000000000000000000000000000000000000000000000008152600401610943906117dd565b60405180910390fd5b600a600081819054906101000a900461ffff168092919061096c90611a0b565b91906101000a81548161ffff021916908361ffff1602179055505061099660008060008533610db2565b9050919050565b6000600460008473ffffffffffffffffffffffffffffffffffffffff1673ffffffffffffffffffffffffffffffffffffffff16815260200190815260200160002060008373ffffffffffffffffffffffffffffffffffffffff1673ffffffffffffffffffffffffffffffffffffffff16815260200190815260200160002060009054906101000a900460ff16905092915050565b610a396112ee565b60088281548110610a73577f4e487b7100000000000000000000000000000000000000000000000000000000600052603260045260246000fd5b90600052602060002090600202016040518060a0016040529081600082015481526020016001820160009054906101000a900467ffffffffffffffff1667ffffffffffffffff1667ffffffffffffffff1681526020016001820160089054906101000a900463ffffffff1663ffffffff1663ffffffff16815260200160018201600c9054906101000a900463ffffffff1663ffffffff1663ffffffff1681526020016001820160109054906101000a900461ffff1661ffff1661ffff16815250509050919050565b60095481565b60008273ffffffffffffffffffffffffffffffffffffffff166001600084815260200190815260200160002060009054906101000a900473ffffffffffffffffffffffffffffffffffffffff1673ffffffffffffffffffffffffffffffffffffffff1614905092915050565b816003600083815260200190815260200160002060006101000a81548173ffffffffffffffffffffffffffffffffffffffff021916908373ffffffffffffffffffffffffffffffffffffffff1602179055505050565b80610c0e3382610f53565b610c1757600080fd5b610c20826110ec565b610c2957600080fd5b600073ffffffffffffffffffffffffffffffffffffffff168373ffffffffffffffffffffffffffffffffffffffff161415610c6357600080fd5b610c6d84836110fd565b610c7657600080fd5b6008805490508210610c8757600080fd5b610c92848484611169565b50505050565b6000610ca3846112d5565b610cb05760019050610daa565b60008473ffffffffffffffffffffffffffffffffffffffff1663150b7a02338887876040518563ffffffff1660e01b8152600401610cf19493929190611754565b602060405180830381600087803b158015610d0b57600080fd5b505af1158015610d1f573d6000803e3d6000fd5b505050506040513d601f19601f82011682018060405250810190610d439190611581565b90507f150b7a023d4804d13e8c85fb27262cb750cf6ba9f9dd3bb30d90f482ceeb4b1f7bffffffffffffffffffffffffffffffffffffffffffffffffffffffff1916817bffffffffffffffffffffffffffffffffffffffffffffffffffffffff1916149150505b949350505050565b6000806040518060a001604052808581526020014267ffffffffffffffff1681526020018863ffffffff1681526020018763ffffffff1681526020018661ffff16815250905060088190806001815401808255809150506001900390600052602060002090600202016000909190919091506000820151816000015560208201518160010160006101000a81548167ffffffffffffffff021916908367ffffffffffffffff16021790555060408201518160010160086101000a81548163ffffffff021916908363ffffffff160217905550606082015181600101600c6101000a81548163ffffffff021916908363ffffffff16021790555060808201518160010160106101000a81548161ffff021916908361ffff160217905550505060006001600880549050610ee491906118a2565b9050808473ffffffffffffffffffffffffffffffffffffffff167f0a5311bd2a6608f08a180df2ee7c5946819a649b204b554bb8e39825b2c50ad58a8a89604051610f3193929190611833565b60405180910390a3610f4560008583611169565b809250505095945050505050565b60008273ffffffffffffffffffffffffffffffffffffffff166001600084815260200190815260200160002060009054906101000a900473ffffffffffffffffffffffffffffffffffffffff1673ffffffffffffffffffffffffffffffffffffffff16148061102057508273ffffffffffffffffffffffffffffffffffffffff166003600084815260200190815260200160002060009054906101000a900473ffffffffffffffffffffffffffffffffffffffff1673ffffffffffffffffffffffffffffffffffffffff16145b806110e45750600460006001600085815260200190815260200160002060009054906101000a900473ffffffffffffffffffffffffffffffffffffffff1673ffffffffffffffffffffffffffffffffffffffff1673ffffffffffffffffffffffffffffffffffffffff16815260200190815260200160002060008473ffffffffffffffffffffffffffffffffffffffff1673ffffffffffffffffffffffffffffffffffffffff16815260200190815260200160002060009054906101000a900460ff165b905092915050565b600060088054905082109050919050565b60008273ffffffffffffffffffffffffffffffffffffffff166001600084815260200190815260200160002060009054906101000a900473ffffffffffffffffffffffffffffffffffffffff1673ffffffffffffffffffffffffffffffffffffffff1614905092915050565b816001600083815260200190815260200160002060006101000a81548173ffffffffffffffffffffffffffffffffffffffff021916908373ffffffffffffffffffffffffffffffffffffffff160217905550600073ffffffffffffffffffffffffffffffffffffffff168373ffffffffffffffffffffffffffffffffffffffff161461127b57600260008473ffffffffffffffffffffffffffffffffffffffff1673ffffffffffffffffffffffffffffffffffffffff168152602001908152602001600020600081548092919061123f906119af565b91905055506003600082815260200190815260200160002060006101000a81549073ffffffffffffffffffffffffffffffffffffffff02191690555b600260008373ffffffffffffffffffffffffffffffffffffffff1673ffffffffffffffffffffffffffffffffffffffff16815260200190815260200160002060008154809291906112cb90611a36565b9190505550505050565b600080823b905060008163ffffffff1611915050919050565b6040518060a0016040528060008152602001600067ffffffffffffffff168152602001600063ffffffff168152602001600063ffffffff168152602001600061ffff1681525090565b60008135905061134681611b17565b92915050565b60008135905061135b81611b2e565b92915050565b60008151905061137081611b45565b92915050565b60008083601f84011261138857600080fd5b8235905067ffffffffffffffff8111156113a157600080fd5b6020830191508360018202830111156113b957600080fd5b9250929050565b6000813590506113cf81611b5c565b92915050565b6000602082840312156113e757600080fd5b60006113f584828501611337565b91505092915050565b6000806040838503121561141157600080fd5b600061141f85828601611337565b925050602061143085828601611337565b9150509250929050565b60008060006060848603121561144f57600080fd5b600061145d86828701611337565b935050602061146e86828701611337565b925050604061147f868287016113c0565b9150509250925092565b6000806000806000608086880312156114a157600080fd5b60006114af88828901611337565b95505060206114c088828901611337565b94505060406114d1888289016113c0565b935050606086013567ffffffffffffffff8111156114ee57600080fd5b6114fa88828901611376565b92509250509295509295909350565b6000806040838503121561151c57600080fd5b600061152a85828601611337565b925050602061153b8582860161134c565b9150509250929050565b6000806040838503121561155857600080fd5b600061156685828601611337565b9250506020611577858286016113c0565b9150509250929050565b60006020828403121561159357600080fd5b60006115a184828501611361565b91505092915050565b6000602082840312156115bc57600080fd5b60006115ca848285016113c0565b91505092915050565b6115dc816118d6565b82525050565b6115eb816118e8565b82525050565b60006115fc8261186a565b6116068185611880565b935061161681856020860161197c565b61161f81611add565b840191505092915050565b600061163582611875565b61163f8185611891565b935061164f81856020860161197c565b61165881611add565b840191505092915050565b6000611670601383611891565b915061167b82611aee565b602082019050919050565b60a08201600082015161169c60008501826116fd565b5060208201516116af602085018261172a565b5060408201516116c2604085018261171b565b5060608201516116d5606085018261171b565b5060808201516116e860808501826116ee565b50505050565b6116f781611920565b82525050565b6117068161194e565b82525050565b6117158161194e565b82525050565b61172481611958565b82525050565b61173381611968565b82525050565b600060208201905061174e60008301846115d3565b92915050565b600060808201905061176960008301876115d3565b61177660208301866115d3565b611783604083018561170c565b818103606083015261179581846115f1565b905095945050505050565b60006020820190506117b560008301846115e2565b92915050565b600060208201905081810360008301526117d5818461162a565b905092915050565b600060208201905081810360008301526117f681611663565b9050919050565b600060a0820190506118126000830184611686565b92915050565b600060208201905061182d600083018461170c565b92915050565b6000606082019050611848600083018661170c565b611855602083018561170c565b611862604083018461170c565b949350505050565b600081519050919050565b600081519050919050565b600082825260208201905092915050565b600082825260208201905092915050565b60006118ad8261194e565b91506118b88361194e565b9250828210156118cb576118ca611a7f565b5b828203905092915050565b60006118e18261192e565b9050919050565b60008115159050919050565b60007fffffffff0000000000000000000000000000000000000000000000000000000082169050919050565b600061ffff82169050919050565b600073ffffffffffffffffffffffffffffffffffffffff82169050919050565b6000819050919050565b600063ffffffff82169050919050565b600067ffffffffffffffff82169050919050565b60005b8381101561199a57808201518184015260208101905061197f565b838111156119a9576000848401525b50505050565b60006119ba8261194e565b915060008214156119ce576119cd611a7f565b5b600182039050919050565b600060028204905060018216806119f157607f821691505b60208210811415611a0557611a04611aae565b5b50919050565b6000611a1682611920565b915061ffff821415611a2b57611a2a611a7f565b5b600182019050919050565b6000611a418261194e565b91507fffffffffffffffffffffffffffffffffffffffffffffffffffffffffffffffff821415611a7457611a73611a7f565b5b600182019050919050565b7f4e487b7100000000000000000000000000000000000000000000000000000000600052601160045260246000fd5b7f4e487b7100000000000000000000000000000000000000000000000000000000600052602260045260246000fd5b6000601f19601f8301169050919050565b7f47656e2030206c696d6974207265616368656400000000000000000000000000600082015250565b611b20816118d6565b8114611b2b57600080fd5b50565b611b37816118e8565b8114611b4257600080fd5b50565b611b4e816118f4565b8114611b5957600080fd5b50565b611b658161194e565b8114611b7057600080fd5b5056fea264697066735822122074486707842c49e476b1efd46a555d172bc78c8cce3fe0d83d536094b173e2f864736f6c63430008010033",
  "immutableReferences": {},
  "source": "// SPDX-License-Identifier: MIT\npragma solidity ^0.8.0;\n\nimport \"./IERC721.sol\";\nimport \"./Ownable.sol\";\nimport \"./IERC721Receiver.sol\";\n\ncontract Kittycontract is IERC721, Ownable {\n\n    mapping(uint256 =>address) private _kittyIndexToOwner;\n\n    mapping(address =>uint256) private _ownershipTokenCount;\n\n    mapping(uint256 =>address) private _kittyIndexToApproved;\n    //approval the operator whole access\n    mapping(address =>mapping (address=>bool)) private _operatorApprovals;\n\n\n    uint256 totalNum = 10;\n\n    string public override name = \"Kitty\";\n\n    string public override symbol = \"FT\";\n\n    struct Kitty {\n        uint256 genes;\n        uint64 birthTime;\n        uint32 mumId;\n        uint32 dadId;\n        uint16 generation;\n    }\n\n\n    Kitty[] Kitties;\n\n    uint256 public gen0Counter;\n    uint16 _gen0Counter;\n    uint256 public constant CREATION_LIMIT_GEN0 = 100;\n\n    bytes4 internal constant ERC721_RECEIVED = bytes4(keccak256(\"onERC721Received(address,address,uint256,bytes)\"));\n\n    event Birth(address indexed owner, uint256 indexed tokenId, uint256 mumId, uint256 dadId, uint256 genes);\n\n    modifier onlyOperator (uint256 tokenId) {\n        require(_checkOperator(msg.sender, tokenId));\n        _;\n    }\n\n    function createKittyGen0 (uint256 _genes) public OnlyOwner returns (uint256) {\n        require(_gen0Counter < CREATION_LIMIT_GEN0, \"Gen 0 limit reached\");\n        _gen0Counter++;\n        return _createKitty(\n            0,\n            0,\n            0,\n            _genes,\n            msg.sender\n        );\n    }\n\n    function _createKitty (\n        uint256 _mumId,\n        uint256 _dadId,\n        uint256 _generation,\n        uint256 _genes,\n        address _owner\n    ) private returns (uint256)\n    {\n        Kitty memory _kitty = Kitty({\n            genes: _genes,\n            birthTime: uint64(block.timestamp),\n            mumId: uint32(_mumId),\n            dadId: uint32(_dadId),\n            generation: uint16(_generation)\n        });\n        Kitties.push(_kitty);\n        uint256 newTokenId = Kitties.length - 1;\n        \n        emit Birth(_owner, newTokenId, _mumId, _dadId, _genes);\n        _transfer(address(0), _owner, newTokenId);\n        return newTokenId;\n    }\n\n    function _checkOperator (address _operator, uint256 _tokenId) private view returns (bool) {\n        return _kittyIndexToOwner[_tokenId] == _operator ||\n            _kittyIndexToApproved[_tokenId] == _operator ||\n            _operatorApprovals[_kittyIndexToOwner[_tokenId]][_operator];\n    }\n\n    function getKitty (uint256 tokenId) external view returns (Kitty memory) \n    {\n        return Kitties[tokenId];\n    }\n\n    function ownerOf(uint256 tokenId) external view override returns (address owner) \n    {\n        return _kittyIndexToOwner[tokenId];\n    }\n\n    function balanceOf(address owner) external view override returns (uint256) {\n        return _ownershipTokenCount[owner];\n    }\n\n    function totalSupply() external view override returns (uint256 total)\n    {\n        return Kitties.length;\n    }\n\n    function transfer(address to, uint256 tokenId) external override {\n        require(_own(msg.sender, tokenId));\n        _approve(to, tokenId);\n        emit Transfer(msg.sender, to, tokenId);\n    }\n\n    function approve(address to, uint256 tokenId) external override {\n        require(_own(msg.sender, tokenId));\n        _approve(to, tokenId);\n        emit Approval(msg.sender, to, tokenId);\n    }\n\n    function setApprovalForAll(address _operator, bool _approved) external override {\n        require(_operator != msg.sender);\n        _operatorApprovals[msg.sender][_operator] = _approved;\n        emit ApprovalForAll(msg.sender, _operator, _approved);\n    }\n\n    function getApproved(uint256 tokenId) external view override returns (address) {\n        require(tokenId < Kitties.length);\n\n        return _kittyIndexToApproved[tokenId];\n    }\n\n    function isApprovedForAll(address owner, address operator) external view override returns (bool) {\n        return _operatorApprovals[owner][operator]; \n    }\n\n\n    function safeTransferFrom(address from, address to, uint256 tokenId, bytes calldata data) external override {\n        _transferFrom(from, to, tokenId);\n        require( _checkERC721Support(from, to, tokenId, data) );\n    }\n\n    function safeTransferFrom(address _from, address _to, uint256 _tokenId) external override {\n        _transferFrom(_from, _to, _tokenId);\n        require( _checkERC721Support(_from, _to, _tokenId, \"\") );\n    }\n\n    function _transferFrom(address _from, address _to, uint256 _tokenId) internal onlyOperator(_tokenId) {\n        require(_isTokenValid(_tokenId));\n        require(_to != address(0));\n        require(_isOwner(_from, _tokenId));\n        require(_tokenId < Kitties.length);\n\n        _transfer(_from, _to, _tokenId);\n    }\n\n    function transferFrom(address from, address to, uint256 tokenId) external override {\n        _transferFrom(from, to, tokenId);\n    }\n\n    function _transfer(address _from, address _to, uint256 _tokenId) internal {\n        // update ownership\n        _kittyIndexToOwner[_tokenId] = _to;\n        // update ownership count\n        if (_from != address(0)) {\n            _ownershipTokenCount[_from]--;//_ownershipTokenCount[from].sub(1);\n            delete _kittyIndexToApproved[_tokenId];\n        }\n        _ownershipTokenCount[_to]++;//_ownershipTokenCount[to].add(1);     \n    }\n\n    function _own(address _claimit, uint256 _tokenId) internal view returns (bool) {\n        return _kittyIndexToOwner[_tokenId] == _claimit;\n    }\n\n    function _approve(address _approved, uint256 _tokenId) internal {\n        _kittyIndexToApproved[_tokenId] = _approved;\n    }\n\n\n    function _approveFor(address _approved, uint256 _tokenId) internal view returns (bool) {\n        return _kittyIndexToApproved[_tokenId] == _approved;\n    }\n\n    function _isTokenValid (uint256 _tokenId) private view returns (bool) {\n        return _tokenId < Kitties.length;\n    }\n\n    function _isOwner (address _from, uint256 _tokenId) private view returns (bool) {\n        return _kittyIndexToOwner[_tokenId] == _from;\n    }\n\n    function _checkERC721Support (address _from, address _to, uint256 _tokenId, bytes memory data) internal returns (bool) {\n        if ( !_isContract(_to) ) {\n            return true;\n        }\n        bytes4 returnData = IERC721Receiver(_to).onERC721Received(msg.sender, _from, _tokenId, data);\n        return returnData == ERC721_RECEIVED;\n    }\n\n    function _isContract (address _to) internal view returns (bool) {\n        uint32 size;\n        assembly{\n            size := extcodesize(_to)\n        }\n        return size > 0;\n    }\n\n    function _mixGenes (uint256 _dadGenes, uint256 _mumGenes) internal pure returns (uint256) {\n        uint256 div = 100000000;\n        uint256 firstHalf = _dadGenes / div;\n        uint256 secondHalf = _mumGenes % div;\n        return firstHalf*div + secondHalf;\n    }\n\n}",
  "sourcePath": "/Users/fengshanshan/Project/kitties-nft-marketplace/contracts/KittyContract.sol",
  "compiler": {
    "name": "solc",
    "version": "0.8.1+commit.df193b15.Emscripten.clang"
  },
  "schemaVersion": "3.4.3",
  "updatedAt": "2022-02-14T01:30:50.331Z",
  "devdoc": {
    "kind": "dev",
    "methods": {
      "balanceOf(address)": {
        "details": "Returns the number of tokens in ``owner``'s account."
      },
      "ownerOf(uint256)": {
        "details": "Returns the owner of the `tokenId` token. Requirements: - `tokenId` must exist."
      },
      "safeTransferFrom(address,address,uint256)": {
        "details": "This works identically to the other function with an extra data parameter,  except this function just sets data to \"\".",
        "params": {
          "_from": "The current owner of the NFT",
          "_to": "The new owner",
          "_tokenId": "The NFT to transfer"
        }
      },
      "setApprovalForAll(address,bool)": {
        "details": "Emits the ApprovalForAll event. The contract MUST allow  multiple operators per owner.",
        "params": {
          "_approved": "True if the operator is approved, false to revoke approval",
          "_operator": "Address to add to the set of authorized operators"
        }
      }
    },
    "version": 1
  },
  "userdoc": {
    "kind": "user",
    "methods": {
      "safeTransferFrom(address,address,uint256)": {
        "notice": "Transfers the ownership of an NFT from one address to another address"
      },
      "setApprovalForAll(address,bool)": {
        "notice": "Enable or disable approval for a third party (\"operator\") to manage  all of `msg.sender`'s assets"
      }
    },
    "version": 1
  }
}